:10000000FAC0000013C1000011C100000FC10000C0
:100010000DC100000BC1000009C1000007C10000B4
:1000200005C1000003C1000027C50000F1C50000A4
:10003000FDC00000FBC00000F9C00000F7C00000D8
:10004000F5C00000F3C00000F1C00000EFC00000E8
:10005000EDC00000EBC00000E9C00000E7C00000F8
:10006000E5C00000E3C00000E1C00000DFC0000008
:10007000DDC00000DBC00000D9C00000D7C0000018
:10008000D5C00000D3C00000D1C00000CFC0000028
:10009000CDC00000CBC00000C9C00000C7C0000038
:1000A000C5C00000C3C00000C1C00000240334006C
:1000B000200042007500740074006F006E00200084
:1000C0004B006500790062006F00610072006400FF
:1000D00000001A036A00610063006B0079006C0085
:1000E000690061006F00310032003300000004033A
:1000F00009040902770004010080FA0904000001E4
:100100000202010005240010010424020605240651
:100110000001070581030800FF09040100020A002D
:100120000000070503021000050705820210000504
:10013000090402000203010100092111010001224A
:1001400040000705840308000507050503080005AE
:100150000904030001030102000921110100012229
:100160003A000705860310000512011001EF020195
:10017000080000000001000102DC0105010902A1E4
:10018000010901A10005091901290315002501959F
:100190000375018102950175058101050109300989
:1001A00031160000267F00360000467F009502755C
:1001B000088102C0C005010906A101050719E0294F
:1001C000E7150025017501950881029501750881E3
:1001D000010508190129059505750191029501751B
:1001E000039101150026FF000507190029FF950658
:1001F00075088100C00011241FBECFEFDAE0DEBF1A
:10020000CDBF11E0A0E0B1E0E2E4FFE002C0059064
:100210000D92A830B107D9F721E0A8E0B1E001C004
:100220001D92AC34B207E1F702D089C6E9CE41D1C4
:1002300084D180E088D18F3FE1F780E084D1D82F4E
:1002400080E081D1C82F80E07ED1682F7D2F8C2F58
:1002500056D1EFCF0895089542E061EC81E015D3C7
:1002600042E161E882E011D342E160E883E00DD32E
:1002700042E061EC84E009D342E060EC85E005D324
:1002800042E061EC86E001D3E2EEF0E08081846040
:1002900080831092000110920101109202011092CD
:1002A00003010895CF93DF9300D0CDB7DEB78091DF
:1002B00045018A3009F4CAC010F5823009F4E1C062
:1002C00040F4813009F48CC00F900F90DF91CF91F2
:1002D0000895833009F4A8C08930B1F780914401B2
:1002E000813291F78091E800877F8093E8008091C8
:1002F000E80082FF94C08091E8008B7725C08032AF
:10030000D1F1B8F48B3001F7809144018132E1F6EC
:100310008091E800877F8093E800EBD281E0209114
:10032000460130914701232B09F480E080930701B7
:10033000CBCF813269F0823239F68091440181322B
:1003400019F68091E800877F8093E800D2D2BCCF75
:1003500080914401813A09F0B7CF8091E800877F0E
:100360008093E80067E070E080E091E094D18091B4
:10037000E8008B7732C080914401813209F0A4CF2C
:100380008091E800877F8093E80067E070E080E07C
:1003900091E0E0D18091000190910101A0910201D2
:1003A000B0910301803B9440A105B10599F487E722
:1003B00097E79093010880930008E9D2F89488E1C8
:1003C00098E00FB6F894A895809360000FBE9093C4
:1003D0006000FFCF8091E8008E778093E80074CFB3
:1003E00080914401813A09F06FCF8091E800877FC6
:1003F0008093E8008091480190914901892B49F44C
:100400008EE091E09A83898368E070E0CE010196E6
:10041000ADCF8BE091E09A83898363E0F6CF809142
:100420004301811164CF50CF80914401813A09F09A
:100430004BCF8091E800877F8093E800809107018F
:100440008093F1008091E8008E777ECF8091440107
:10045000813209F039CF8091E800877F8093E800EE
:1004600048D2809146019091470126E09695879564
:100470002A95E1F78C7F937090930901809308018E
:1004800023CF80914401813A09F01ECF8091E8008A
:10049000877F8093E8008DE7D3CF8091080190910A
:1004A0000901009729F001979093090180930801B1
:1004B000089588E291E090933D0180933C0188E1AA
:1004C00091E0909338018093370184B7877F84BF90
:1004D0000FB6F894A89580916000886180936000C1
:1004E000109260000FBE80E890E00FB6F894809301
:1004F0006100909361000FBEA2D278940895CF93CB
:10050000DF9300D01F92CDB7DEB769837A838B83E8
:1005100086E08093E90050E040E063E070E0CE01C7
:1005200001966CD0E8EEF0E080818E7780830F90AA
:100530000F900F90DF91CF91089585E084B915B8A1
:1005400080E48CBD08958EBD0DB407FEFDCF8EB541
:100550000895292F33272330310571F158F42130C4
:100560003105E9F02230310511F190E080E030E012
:1005700020E019C02132310591F122323105A9F76D
:1005800080E490E025EB31E06230710561F08AE3B0
:1005900090E02BE731E06330710529F0E6CF82E18E
:1005A00090E029E631E0FA0131832083089587E75E
:1005B00090E022EF30E0F7CF99278130910561F08C
:1005C00028F0029791F6ECEAF0E002C0EEEEF0E0DF
:1005D000849190E09F01E7CFE2EDF0E0F9CF89E070
:1005E00090E029E331E062307105E9F289E090E0C2
:1005F00029E531E063307105B1F2B7CFAF92BF9218
:10060000CF92DF92FF920F931F93CF93DF936C01F2
:10061000EB018A018DD1F82E811123C0011511053E
:1006200039F0F80180819181C81BD90BC80ED91E01
:10063000B12CA12C2097A9F08091E80085FD21C064
:100640008091E8008E778093E80001151105A1F0F4
:10065000F80180819181A80EB91EB182A08285E047
:10066000F82E8F2DDF91CF911F910F91FF90DF908A
:10067000CF90BF90AF9008955BD18823D9F2F82E28
:10068000F0CFF60181916F018093F1002197FFEF88
:10069000AF1ABF0ACFCFFC0180914A0190914B0164
:1006A00086179707A0F06115710529F49091E8006D
:1006B0009E779093E80090E06115710551F49111D7
:1006C00008C08091E80082FF35C080E00895BC0139
:1006D000F2CF809143018823C9F18530C9F180911F
:1006E000E80083FD31C08091E80082FDEACF80916F
:1006F000E80080FFE1CF2091F3008091F200322FDB
:10070000282F6115710519F02830310558F091E056
:100710002830310509F090E02091E8002E772093F1
:10072000E800CACF81918093F100615071092F5F79
:100730003F4FE7CF80914301882341F0853041F05E
:100740008091E80083FFBDCF81E0089582E00895A5
:1007500083E00895FC016115710529F49091E8008A
:100760009B779093E8006115710531F48091E80062
:1007700080FF1FC080E0089580914301882319F114
:100780008530E9F08091E80083FD1BC08091E8008E
:1007900082FFE9CF2091F3008091F200322F282FC1
:1007A000232BE1F28091F10081936150710991F75F
:1007B000D5CF80914301882331F08530B9F683E0AD
:1007C000089581E0089582E00895FC0180914A0136
:1007D00090914B0186179707A0F06115710529F4D8
:1007E0008091E8008E778093E80090E061157105B4
:1007F00051F4911108C08091E80082FF36C080E07A
:100800000895BC01F2CF809143018823D1F1853056
:10081000D1F18091E80083FD32C08091E80082FD33
:10082000EACF8091E80080FFE1CF2091F300809132
:10083000F200322F282F6115710519F0283031058B
:1008400058F091E02830310509F090E08091E800FF
:100850008E778093E800CACF84918093F10031961F
:10086000615071092F5F3F4FE6CF8091430188238C
:1008700041F0853041F08091E80083FFBCCF81E0FA
:10088000089582E0089583E00895982F973028F026
:100890008F708093E90081E008959093E900242F00
:1008A000762F50E0981731F07091EC002091ED0018
:1008B0005091F00021FD02C09F5FE8CF3091EB0026
:1008C0003E7F3093EB003091ED003D7F3093ED00A3
:1008D0003091EB0031603093EB007093EC0020938B
:1008E000ED005093F0002091EE0027FDE5CF80E071
:1008F00008958091440187FF13C08091E80082FF32
:1009000006C08091E8008B778093E80004C0809156
:1009100043018111F2CF0895809143018823D9F3D7
:100920008091E80080FFF8CF8091E8008E77ECCFCF
:100930002091E4003091E50085E69091EC0090FF75
:1009400006C09091E80090FF06C080E00895909165
:10095000E80092FDFACF90914301992391F09530F0
:1009600091F09091EB0095FD10C04091E400509102
:10097000E5002417350709F381509A01F1F684E068
:10098000089582E0089583E0089581E0089567D096
:100990006ED0E0EEF0E0808181608083E8EDF0E0F1
:1009A00080818F77808319BCA7EDB0E08C918E7F1A
:1009B0008C9380818F7E80831092420108950F93E3
:1009C0001F93CF93DF934BD052D0C8EDD0E08881F6
:1009D0008F77888388818068888388818F7D8883EA
:1009E00019BC1092430110923F01109241011092E4
:1009F000400100EE10E0F80180818B7F80838881C8
:100A00008160888342E060E080E03FDFE1EEF0E07B
:100A100080818E7F8083E2EEF0E080818160808340
:100A2000808188608083F80180818E7F80838881C7
:100A300080618883DF91CF911F910F910895E8ED38
:100A4000F0E080818F7E8083E7EDF0E0808181603F
:100A5000808384E082BF81E080934201B0CFE8EDE3
:100A6000F0E080818E7F80831092E20008951092E2
:100A7000DA001092E10008951F920F920FB60F92C4
:100A800011242F933F934F935F936F937F938F9393
:100A90009F93AF93BF93EF93FF938091E10082FF09
:100AA0000AC08091E20082FF06C08091E1008B7F46
:100AB0008093E100F2DC8091DA0080FF18C0809121
:100AC000D80080FF14C08091DA008E7F8093DA0016
:100AD0008091D90080FF8FC080E189BD82E189BD0E
:100AE00009B400FEFDCF81E080934301B3DB809128
:100AF000E10080FF18C08091E20080FF14C0809167
:100B0000E2008E7F8093E2008091E200806180931A
:100B1000E2008091D80080628093D80019BC85E003
:100B2000809343010BD28091E10084FF28C0809123
:100B3000E20084FF24C080E189BD82E189BD09B45F
:100B400000FEFDCF8091D8008F7D8093D8008091EA
:100B5000E1008F7E8093E1008091E2008F7E8093A0
:100B6000E2008091E20081608093E20080913F0189
:100B7000882309F445C084E080934301DFD180914C
:100B8000E10083FF27C08091E20083FF23C08091B2
:100B9000E100877F8093E10082E08093430110921F
:100BA0003F018091E1008E7F8093E1008091E2001F
:100BB0008E7F8093E2008091E20080618093E2006A
:100BC00042E060E080E061DE8091F0008860809328
:100BD000F000B4D1FF91EF91BF91AF919F918F91B0
:100BE0007F916F915F914F913F912F910F900FBE29
:100BF0000F901F90189519BC109243012CDB77CFF2
:100C00008091E30087FD02C081E0B6CF83E0B4CFDE
:100C10001F920F920FB60F9211242F933F934F9371
:100C20005F936F937F938F939F93AF93BF93CF9374
:100C3000EF93FF93C091E900CF708091EC00109288
:100C4000E9008091F000877F8093F00078941BD0BA
:100C50001092E9008091F00088608093F000C093CA
:100C6000E900FF91EF91CF91BF91AF919F918F914B
:100C70007F916F915F914F913F912F910F900FBE98
:100C80000F901F9018951F93CF93DF93CDB7DEB7CA
:100C9000AA970FB6F894DEBF0FBECDBFE4E4F1E033
:100CA0008091F100819321E0EC34F207C9F7FADA80
:100CB0008091E80083FF10C080914401909145012C
:100CC000953009F4D8C000F5913009F48BC008F4D0
:100CD00061C0933009F486C08091E80083FF0AC0A8
:100CE0008091E800877F8093E8008091EB0080622C
:100CF0008093EB00AA960FB6F894DEBF0FBECDBF6F
:100D0000DF91CF911F910895983009F4ECC099308C
:100D100009F4F6C0963001F780588230E8F68091E9
:100D20004601909147018C3D23E0920709F0C6C02F
:100D300083E08A838AE289834FB7F894DE011396B1
:100D400020E03EE051E2E32FF0E050935700E491C1
:100D500020FF03C0E295EF703F5FEF708E2F90E0B1
:100D6000EA3008F4A9C0C7968D939D932F5F243174
:100D700051F74FBF8091E800877F8093E8006AE2D7
:100D800070E0CE01019687DC8091E8008B7780933C
:100D9000E800A2CF803899F0823809F09DCF809189
:100DA00048018F70873008F097CF8093E9008091D9
:100DB000EB0085FB882780F91092E90006C080913E
:100DC000400190914101911182609091E800977FDC
:100DD0009093E8008093F1001092F1008091E80078
:100DE0008E7732C0282F2D7F09F076CF8823E9F047
:100DF000823009F071CF80914601811120C080912D
:100E000048018F702FEF280F263008F065CF8093B0
:100E1000E9002091EB0020FF12C09330C9F48091CB
:100E2000EB0080628093EB000AC080914601813024
:100E300009F052CF933009F080E080934101109285
:100E4000E9008091E800877F8093E80052DD44CF7D
:100E50009091EB0090619093EB0021E030E001C0B5
:100E6000220F8A95EAF72093EA001092EA00809117
:100E7000EB008860D7CF81112FCF109146011F77EB
:100E80008091E3008078812B8093E3008091E800DB
:100E9000877F8093E8002DDD8091E80080FFFCCF04
:100EA0008091E30080688093E30083E0111101C02A
:100EB00082E08093430110CFC09656CF60914801E5
:100EC00070914901AE014F5F5F4F43DBBC01892B3D
:100ED00009F402CF9091E800977F9093E800898110
:100EE0009A8173DC51CF803809F0F6CE8091E8000A
:100EF000877F8093E80080913F018093F1006ECF5F
:100F00008111EACE90914601923008F0E5CE8091B1
:100F1000E800877F8093E80090933F01EADC8091AE
:100F20003F01882329F084E08093430195D9D4CEF2
:100F30008091E30087FDF7CF81E0F6CF0895F89424
:020F4000FFCFE1
:080F420000000000000008019E
:00000001FF
